:020000040001F9
:10400000D8370020C1410100D3410100D541010052
:1040100000000000000000000000000000000000A0
:10402000000000000000000000000000D741010077
:104030000000000000000000D9410100DB41010048
:10404000DD410100DD410100DD410100DD410100F4
:10405000DD41010000000000F17001003B4901005A
:10406000DD410100614A0100DD410100DD41010047
:10407000DD410100DD410100DD410100DD410100C4
:10408000DD410100D5650100DD410100DD41010098
:10409000F7650100DD410100656D0100DD410100B2
:1040A000DD410100DD4101000000000000000000D2
:1040B0000000000000000000000000000000000000
:1040C00000F002F800F040F80CA030C808382418BE
:1040D0002D18A246671EAB4654465D46AC4201D140
:1040E00000F032F87E460F3E0FCCB6460126334232
:1040F00000D0FB1AA246AB4633431847E83600000F
:1041000008370000103A02D378C878C1FAD85207AD
:1041100001D330C830C101D504680C60704700007D
:104120000023002400250026103A01D378C1FBD8D3
:10413000520700D330C100D50B6070471FB5C04691
:10414000C0461FBD10B510BD03F010FB1146FFF7B0
:10415000F5FF00F099FC03F028FB03B4FFF7F2FF32
:1041600003BC03F02DFB0000401E00BF00BF00BFDA
:1041700000BF00BF00BF00BF00BF00BF00BF00BF47
:1041800000BFF1D17047000070B505460C461646D9
:1041900002E00FCC0FC5103E102EFAD2082E02D32B
:1041A00003CC03C5083E042E07D301CC01C5361F3E
:1041B00003E021782970641C6D1C761EF9D270BD55
:1041C0000A4802680F210A430260094880470948EB
:1041D0000047FEE7FEE7FEE7FEE7FEE7FEE700003A
:1041E00005480649064A074B704700002405004071
:1041F0009F420100C1400100D8270020D83700208D
:10420000D82F0020D82F00202E482F490860704753
:104210002E48008CC0B2012810D12C48808C000799
:10422000000F0BD12948806AF0210840402805D1B1
:104230002648C06A084201D1012070470020FCE7EF
:104240002248008CC0B2012827D12048808C00076A
:10425000000F22D11D48806AF021084205D11B4879
:10426000C06A084201D1012070471848806AF021D5
:104270000840102805D11548C06A084201D1012024
:10428000F2E71248806AF0210840302805D10F4833
:10429000C06A084201D10120E6E70020E4E710B53A
:1042A000FFF7CEFF002805D009480A494860C81327
:1042B00009498861FFF7ACFF002802D001200749B7
:1042C000886010BD0024F40000200020C00F00F022
:1042D000DFFF07C000050040006C00400006004002
:1042E00004460D4616460F2000F0F7FB32462946DD
:1042F000204603F0D5F800BFBFF34F8FFA48FB49C3
:10430000C860BFF34F8F00BF00BFFEE704460D46F5
:104310002A462146F648FFF7E3FF10B5082000F0D3
:10432000D3FB092000F0D0FB0F2000F0CDFB10BD27
:1043300038B500BFEF48F04B052202210090002065
:1043400002F05DF9044600BF2546002D05D000BFF0
:10435000EAA2BA212846FFF7C3FF00BF00BF38BD5D
:104360003EB500BF6846007801090901491C00916B
:1043700068460078F02188431030009000BF132277
:10438000E1A168467CDF044600BF2546002D05D02C
:1043900000BFDAA2CC212846FFF7A2FF00BF002011
:1043A00078DF044600BF2546002D05D000BFD3A20C
:1043B000D2212846FFF794FF00BF00200190029011
:1043C000062168468180C18000210181FF21913151
:1043D000418101A87ADF044600BF2546002D05D0A3
:1043E00000BFC6A2DB212846FFF77AFF00BF3EBD13
:1043F00030B5A1B006210291C848006801903C2167
:1044000012A803F0CAF802201290002110A84173EC
:104410000121018202A915910121818401A91A912A
:104420003C2103A803F0B9F801216846018501A9E0
:104430000B9103A912A801F08DFB044600BF25468D
:10444000002D05D000BFADA2FF212846FFF748FF91
:1044500000BF21B030BD70B5B14800F0C0FC0446CB
:1044600000BF2546002D06D000BFA4A2FF210E31BB
:104470002846FFF735FF00BF70BD1E20A949088000
:104480000846807840084000401C887008468078C4
:1044900002218843A3498870084680781C218843FC
:1044A0000C30A049887008468078202188439D49B7
:1044B00088700720C87010200871704770B50546D5
:1044C0002868002810D13B219748008876DF0446F1
:1044D00000BF2646002E06D000BF88A2FF21313142
:1044E0003046FFF7FDFE00BF70BD044600BF83A24B
:1044F000FF213C312046FFF7F3FE30B587B01C2189
:10450000684603F04AF8002000900520400401901E
:10451000801002900321684601730021C18101745B
:104520008248059082480690684602F046FA0446A2
:1045300000BF2546002D06D000BF70A2FF215231DA
:104540002846FFF7CDFE00BF07B030BD30B585B0BF
:104550001421684603F021F800216846017000200C
:1045600001906846017240210182B421418273DFCB
:10457000044600BF2546002D06D000BF5FA2FF21E4
:1045800066312846FFF7ACFE00BF082000F0A5FA10
:1045900005B030BDF8B505462888142851D006DC92
:1045A00010280BD0112813D0132875D11DE017281F
:1045B00041D0192872D05228F7D129E0092000F003
:1045C0008CFA082000F08EFAA88857490880B6E0D7
:1045D000012058494860092000F084FA0020C043B7
:1045E00051490880FFF7B2FFA9E04E4A00214E482A
:1045F00000887FDF044600BF2746002F06D000BF9B
:104600003EA2FF218F313846FFF76AFE00BF96E0D9
:104610000022114644480088A9DF044600BF27460F
:10462000002F06D000BF35A2FF2194313846FFF796
:1046300057FE00BF83E03222A91D3F4802F04EFF23
:104640007DE03D4EB61D3188E889814211D10022BE
:1046500031463548008881DF044600BF2746002FD9
:1046600006D000BF25A2FF21A0313846FFF738FE53
:1046700011E0002211462C48008881DF044600BF6B
:104680002746002F06D000BF1CA2FF21A6313846C6
:10469000FFF726FE00BF52E050E0FFE7A8790028B0
:1046A00020D1082000F01EFA1820002103220092D9
:1046B000009A12048B001A4305231B0707273F02A9
:1046C000DB198700DA5100BF31DF044600BF2746FF
:1046D000002F06D000BF09A2FF21B6313846FFF7F0
:1046E000FFFD00BF2BE000000400FA0500ED00E034
:1046F000EFBEADDEEF4A0100F02000202E2E5C6DF3
:1047000061696E2E6300000053706F7274732061D4
:104710007070204144432076312E3000D077010064
:10472000502400202420002004200020BD4401004B
:10473000EB440100009000400823002000BF00BFB0
:10474000F8BD10B5044605E0F849F94800F082FAD2
:10475000601E84B2002CF7DC10BD10B50446F5488D
:104760000088002805D10120F349C8600860F1499C
:1047700008802088012810D0502803D0EF49401825
:1047800012D106E0EE4861DFED480078FFF7D9FF6F
:104790000BE00020EA49087007E0E94861DFE848DB
:1047A0000078FFF7CEFF00E000BF00BF10BD10B5DE
:1047B00004462046FFF7EEFE204602F0D2F92046DE
:1047C000FFF7CBFF10BD10B50446204600F0A3FC58
:1047D00010BD70B500BF00235022DA49082002F056
:1047E0007AFA054600BF2E46002E06D000BFD64AF4
:1047F000112149013046FFF773FD00BF00BFD348C8
:1048000002F09EFA044600BF2546002D06D000BFE8
:10481000CD4A892189002846FFF762FD00BFCC48B8
:1048200002F097FA044600BF2546002D06D000BFCF
:10483000C54A4521C9002846FFF752FD00BF70BD9B
:1048400070B500BFC34A0A21082001F0CBF9044625
:1048500000BF2546002D06D000BFBB4A2321090119
:104860002846FFF73DFD00BF00BF70BD70B500BF1B
:10487000B949012002F0A1FC044600BF2546002DE5
:1048800006D000BFB04A4721C9002846FFF728FDDF
:1048900000BF00BF70BD70B500BFB04BB04A012172
:1048A000B04802F00FFB044600BF2546002D06D09D
:1048B00000BFA54A4921C9002846FFF711FD00BFE6
:1048C00000BF70BD70B53DDF044600BF2546002D1A
:1048D00005D000BF9C4AA4492846FFF701FD00BF50
:1048E00070BD70B5A148A249486001200860A14987
:1048F00048600121072028DF0446002C0BD000BFB0
:104900002546002D06D000BF8F4A97490D31284615
:10491000FFF7E6FC00BF072023DF0446002C0BD086
:1049200000BF2546002D06D000BF874A8E491231B0
:104930002846FFF7D5FC00BF70BD10B50D2000F074
:10494000CCF800208C4908608948806877498B4AF8
:1049500012788854864880680004010E734A87489C
:104960000078401C1154854800780A2803DB002099
:104970008249087004E081480078801C7F490870F3
:104980007F480088802803DB04207D49088005E0FB
:104990007B4800884004000C7949088074484068CE
:1049A000FF210902884372494860084640687449FB
:1049B0000988090208436E4948600120714908606E
:1049C0000D2000F08FF810BD70B500206E494860D2
:1049D00066480B38086101206C490860C0036A49C9
:1049E000403108600020684988600120000468495F
:1049F00048600321092028DF0446002C0BD000BFAB
:104A00002546002D06D000BF4F4A57493931284668
:104A1000FFF766FC00BF092023DF0446002C0BD003
:104A200000BF2546002D06D000BF474A4E493E3103
:104A30002846FFF755FC00BF70BD70B505465548C8
:104A40000068401C534908600846016852480068E5
:104A500002F0DCFD84B22012344908704C7070BD45
:104A600010B500204949C0390860FFF7E6FF0B2068
:104A700000F038F80B204949496801228240514032
:104A8000464A516000BF10BDFFF747FCFFF750FCDE
:104A9000FFF7ECFEFFF7FFFEFFF79BFEFFF7D0FEF0
:104AA000FFF75EFCFFF7A4FCFFF7D5FCFFF725FD41
:104AB000FFF7E3FCFFF788FFFFF748FD03E001F095
:104AC00052F9FFF7FFFEFAE701210522120707233B
:104AD0001B02D2188300D1507047012181402F4A18
:104AE00091607047012181402C4AD16070477CB5AC
:104AF00004460D4600940195294A0821684601F0B4
:104B000091F87CBD7CB504460D460094684605715D
:104B1000244A082101F086F87CBDF8B504460D460C
:104B2000264600BF082D3FD101203EE0DC200020BA
:104B3000502400201020002000900040FDCFFFFFF7
:104B4000302000203C230020FC460100AF4701003C
:104B5000C74701008C2300203C240020054B0100A6
:104B60006606000014200020550200000A04000020
:104B700000750040007300400071004022200020BA
:104B8000202000200070004000950040009200406E
:104B9000009300400C200020082000200005005059
:104BA0001B4B0100C74B010000200746002F05D119
:104BB00000BF10A2FF211431FFF792FB00BF316844
:104BC00070688847F8BDF8B504460D46264600BF14
:104BD000082D01D1012000E000200746002F04D15C
:104BE00000BF10A29B21FFF77BFB00BF307931682B
:104BF0008847F8BD2E2E5C2E2E5C2E2E5C2E2E5C51
:104C00002E2E5C496E636C7564655C6170705F63C9
:104C10006F6D6D6F6E5C6170705F74696D65722E23
:104C2000680000002E2E5C2E2E5C2E2E5C2E2E5C3C
:104C30002E2E5C496E636C7564655C6170705F6399
:104C40006F6D6D6F6E5C6170705F627574746F6EA6
:104C50002E68000030B585B004460D461421009141
:104C60000420E87473480068143072490860724880
:104C7000807C401C70498874082070494968012272
:104C8000824051406D4A516000BF00200190029067
:104C900003900490012168468171618881800495A8
:104CA0000390608901A9A6DF05B030BD10B590B0B2
:104CB00004460020089000BF08A8007801090901F7
:104CC000491C08A801700078F0218843103008A919
:104CD000087000BF00BF08A8407801090901491CFD
:104CE00008A841704078F0218843103008A9487026
:104CF00000BF08A8807806218843811C08A881701D
:104D00001C2109A802F049FC08A800790221884367
:104D1000811C08A80171007910218843411808A856
:104D2000017100200A900C900D9008A80E900020B0
:104D30000F90217B684681724149018100200190DA
:104D400000BF6846007901090901491C68460171E4
:104D50000079F021884310306946087100BF00BF18
:104D60006846407901090901491C6846417140794A
:104D7000F021884310306946487100BF6846807949
:104D800006218843811C6846817180790821884307
:104D90000146684681718079102188430146684642
:104DA0008171807941084900491C6846817114214C
:104DB00003A802F0F2FB02A8039001A804901421BA
:104DC000684681820021C18214210183002007905E
:104DD0002088A31C03AA09A9A2DF10B010BD30B51A
:104DE00085B00546174B0FCB6C460FC429460C31D6
:104DF000684662DF0446002C02D0204605B030BD74
:104E0000297B684681740E49C91C01822A4604A97F
:104E10000120A0DF0446002C01D02046EEE7284602
:104E2000FFF744FF0446002C01D02046E6E70020AF
:104E3000E4E7000008200020DC20002000050050EE
:104E400041440000D4770100002314214143FA4A71
:104E500053541421414389184B80022314214143A8
:104E600089188B600023142141438918CB601421D9
:104E7000414389180B611421414389188B80704785
:104E800010B50020ED490880EB49091F08704870F3
:104E90008870002403E02046FFF7D6FF641C1E2C18
:104EA000F9D310BDF8B50F25E348001F0078142191
:104EB0004843E1494418E06800902078042813D161
:104EC0008006006981B2009802F0A0FBDB490988E6
:104ED0004618304650DF0546002D04D1D7480088DB
:104EE000401CD64908802BE02078022828D1276969
:104EF000D24800883F18A088D049098841180098F6
:104F0000081800906088CD490988461A012080025F
:104F1000864205D2B2083946009851DF054605E0C1
:104F2000FF2201323946009851DF0546002D06D197
:104F3000C2480088012189024018C049088000BF8A
:104F4000002D03D10120BC49091F88702846F8BDF7
:104F5000FFB581B005460E46174600240420B64929
:104F6000091F897800293CD1B349091F49780029D4
:104F700037D1B14A121F11701146097814225143DA
:104F8000AD4A5554111F097814225143AA4A891871
:104F90000F61111F097814225143A74A89187368B9
:104FA0003268CB608A60A44A121F127814235A43D5
:104FB000A14BD218049951801A1F127814235A4316
:104FC0009D4BD2180A999180191F4978491C1A1FC4
:104FD0005170FFF767FF002801D0112833D100205E
:104FE00031E09549091F49781E292CD09249091FA3
:104FF0000978914A121F52788918CCB21E2C02DB14
:1050000021461E39CCB2142161438B4A55541421D8
:10501000614389180F6114216143891873683268EC
:10502000CB608A6014226243834BD218049951806A
:1050300014226243D2180A999180191F4978491C99
:105040001A1F5170002005B0F0BDF8B504467A482B
:10505000001F00781421484377490D5C081F007831
:1050600014214843744940188068000174490E585F
:10507000042D01D1002007E06F48001F00781421A3
:1050800048436D49401840886B49091F00900978D2
:1050900014225143684A89180B69111F0978142298
:1050A0005143654A89180846083022462946B047C8
:1050B000F8BD70B56048001F0078142148435E4970
:1050C000451868885D490988884212DC5A49091FD9
:1050D0000878FFF7B9FE0020584908805648001F9D
:1050E0004078401E5449091F487008460078401C0B
:1050F000087000245048001F4078002809D0FFF7AE
:10510000D1FE0446002C04D0112C02D02046FFF71B
:105110009CFF204670BD70B5054600264648001F1E
:10512000807801282AD100204349091F8870022D68
:1051300002D0032D1FD11AE03F48001F0078142130
:1051400048433D4944182078042804D160883B49ED
:105150000988884202DC3046FFF777FFFFF7A9FF96
:105160000646002E02D03046FFF76FFF04E00D2008
:10517000FFF76BFF00E000BF00BF00BF70BD10B5C0
:10518000FFF77EFE00202F4908802F484069401C11
:1051900008D001221207126991B22B4A506902F01D
:1051A00035FA02E0012000074069801E012109074D
:1051B000096989B248432549086000201F490880D1
:1051C00000BF0DE0002102011D4B99500201D218D1
:1051D00011810201D21891810201D2185181401C23
:1051E0000228EFD301201A490870002010BDF8B53D
:1051F00004460D4600BF16480078002801D108205B
:10520000F8BD00BF002C01D10E20F9E7002D01D11F
:105210000E20F5E72068002801D10E20F0E7A088D5
:1052200001210907096989B2884202DCA088102897
:1052300010DA0720E4E70000642400203C2000206E
:10524000BC2600203620002000100010382000204E
:1052500034200020E08800281CD0DD484069401C34
:1052600008D001221207126991B2D94A506902F09E
:10527000CDF902E001200007406901210907096911
:1052800089B24843E188A2885143D24A12688918FA
:10529000884201D20720B3E7CF480088022801D115
:1052A0000420ADE7CC4800882860CA4800686860E0
:1052B000C94909880901C94A891868684860C64906
:1052C0000988090120685050A088C349098809014C
:1052D00089180881E088C04909880901891848812E
:1052E0000027A688E1884E4300BF781C87B20120C2
:1052F0000007006980B2B04205D2012000070069B2
:1053000080B2361A00E0002601200007006980B252
:10531000B04909684018AF490860012000070069DA
:1053200080B2B042E1D9AC4800880001AB494018D6
:105330008781A9480088401CA749088000205FE7B2
:105340003CB5034600BFA6480078002801D10820DC
:105350003CBD00BF002B01D10E20F9E7002A01D18E
:105360000E20F5E71868022805D2186800019B4C4A
:105370002058002801D10720EAE75C6818680194EA
:105380000090019C18680001944D40190089484321
:1053900020180190009800012C4600194089009CBB
:1053A0002401641924896043009C24016419646801
:1053B0000019019CA04201D80720C9E7019C009870
:1053C000546010600020C3E7F8B504460D46164649
:1053D0001F4600BF82480078002801D10820F8BD90
:1053E00000BF002D01D10E20F9E7002C01D10E20C5
:1053F000F5E72068022805D220680001774908589F
:10540000002801D10720EAE720680001734940180D
:10541000408921680901714A89180989484321682E
:1054200009018918496840186168884201D8072035
:10543000D5E7002E06D02068000168494018008991
:10544000B04201DA0720CAE7F01921680901634A6E
:1054500089180989884201DD0720C0E7284600F045
:10546000AEF8002804D0E81900F0A9F8002801D10E
:105470001020B4E733462A46214602200097FFF762
:1054800067FDACE7F8B507460C4615461E4600BF5B
:1054900053480078002801D10820F8BD00BF002C37
:1054A00001D10E20F9E7002F01D10E20F5E7206889
:1054B000022805D22068000148490858002801D177
:1054C0000720EAE720680001444940184089216824
:1054D0000901424A89180989484321680901891844
:1054E000496840186168884201D80720D5E7002D37
:1054F00006D020680001394940180089A84201DA25
:105500000720CAE7A81921680901344A89180989BE
:10551000884201DD0720C0E7384600F050F8002837
:1055200004D0B81900F04BF8002801D11020B4E7DE
:10553000606881192A46384601F0D0FF0020ACE7A8
:10554000F8B504460F4600BF25480078002801D171
:105550000820F8BD00BF002C01D10E20F9E720681B
:10556000022805D2206800011C490858002801D1F2
:105570000720EEE72068000118494018408921689B
:105580000901164A891809894843216809018918BF
:10559000496840186168884201D80720D9E7206827
:1055A00000010E494018858900202B4602462146FD
:1055B00000900420FFF7CCFC06463046C9E70146C0
:1055C0008807800F01D1012070470020FCE7000010
:1055D000001000103820002036200020BC260020BB
:1055E00034200020F7B584B004460F4606980678AC
:1055F000B01C1F2803DC2079801C1F2802DD0C2032
:1056000007B0F0BD1F20801B801E85B20295B11C23
:10561000781802A97DDF03900398002801D0039831
:10562000EEE72068022808D168460089A84204DC19
:1056300009200190684605890BE008200190207937
:10564000002804D02079A84201DC257901E06846D1
:105650000589681CC2B23046711CCEB23A5430463D
:10566000721CD6B20199395406980178A81C081802
:10567000C1B2069801700020C2E7F8B505460C4695
:105680002078001D1F2801DD0C20F8BD684679DF59
:105690000646002E01D03046F7E703212278501C41
:1056A0002070A95419212278501C2070A954207808
:1056B00041196846008800F08AFA21784018207065
:1056C0000020E2E7F8B505460F4616461C46686816
:1056D000002801D10720F8BD2078801C29884018B7
:1056E0001F2801DD0C20F6E72878401CC1B2227883
:1056F000501C2070B1542178481C207077542A889F
:1057000023789819696801F0E9FE20782978401813
:1057100020700020DFE730B503461078C01C1F283A
:1057200001DD0C2030BD02241578681C10704C552A
:105730000A241578681C10704C551578681C107078
:105740004B550020EEE7FFB587B006461D46109C7E
:105750000020069020780590002747E0B900706887
:1057600041180A886846028149884181002203A9BC
:1057700002A864DF04900498002802D004980BB0BB
:10578000F0BD6846017B099881422ED10698002819
:1057900001D0002000E00220019020786946097BBA
:1057A0004118019808181F2801DD0C20E7E706982A
:1057B000002809D12078401C20702278511C0898BC
:1057C0002170A854012006902078421903A902A84C
:1057D00064DF04900498002801D00498CFE7207873
:1057E0006946097B4018207000BF7F1C3088B84292
:1057F000B4DC0698002806D021780598401C081AC9
:10580000C1B2059829540020B9E7FFB581B0074619
:1058100015460A9E009602223846049B0299FFF71D
:1058200092FF0446002C02D0204605B0F0BD009641
:10583000102229463846049BFFF785FF0446002CBA
:1058400001D02046F1E70020EFE70146088806284E
:1058500008DB08881922D201904205DD0888E04A59
:10586000904201D0072070474888062808DB488806
:105870001922D201904205DD4888D94A904201D0D0
:105880000720F0E70888D64A904208D0488890421E
:1058900005D008884A88904201DD0720E3E7002010
:1058A000E1E7F8B506460D4614462078801D1F280E
:1058B00001D90C20F8BD3046FFF7C7FF0746002F7F
:1058C00001D03846F6E705212278501C2070A954F3
:1058D00012212278501C2070A95422785119308846
:1058E00000F075F9217840182070227851197088DD
:1058F00000F06DF92178401820700020DAE7F8B543
:1059000005460E4614462879801CC7B22078801CB4
:10591000C0191F2801DD0C20F8BD781CC1B2227807
:10592000501C2070B154FF212278501C2070B154BB
:1059300022789119288800F04AF9217840182070BF
:10594000A88800280EDDA868002801D10720E3E719
:10595000AA8823789819A96801F0C0FD20782979D0
:10596000401820700020D7E7FEB507460E461446C3
:10597000786B002801D10720FEBD0020019032E0A5
:10598000796B0C22019850430D182879801CC0B205
:1059900000900098401CC1B22278501C2070B15475
:1059A00016212278501C2070B15422789119288831
:1059B00000F00DF9217840182070A88800280EDD2D
:1059C000A868002801D10720D6E7AA88237898196B
:1059D000A96801F083FD207829794018207001988A
:1059E000401CC0B201903820C15D01988142C7DCE3
:1059F0000020C1E7F8B504460F46164600250020F2
:105A000030702068002809D0324639462046FFF71A
:105A1000E9FD0546002D01D02846F8BD6079002833
:105A200008D031463846FFF728FE0546002D01D044
:105A30002846F2E7208900280BDD33463A4601214B
:105A400020460830FFF73EFE0546002D01D02846CF
:105A5000E3E7206900280BD0002021690856324670
:105A60003946FFF758FE0546002D01D02846D4E7F9
:105A7000A08A00280CDD3B46062202212046143075
:105A80000096FFF7C2FE0546002D01D02846C4E768
:105A9000A08B00280CDD3B460722032120461C304A
:105AA0000096FFF7B2FE0546002D01D02846B4E768
:105AB000A08C00280CDD3B46152214212046243002
:105AC0000096FFF7A2FE0546002D01D02846A4E768
:105AD000E06A002809D032463946E06AFFF7E1FE65
:105AE0000546002D01D0284697E7206B002809D0F5
:105AF00032463946206BFFF702FF0546002D01D0E4
:105B000028468AE73820005D002809DD32463946FC
:105B10002046FFF729FF0546002D01D028467CE7E7
:105B200028467AE701460889002807D0C868002877
:105B300004D0C86800780422104201D107207047C1
:105B40000020FCE701460889002801DD0720704796
:105B50000020FCE7F3B593B00D460021129111919E
:105B60001398002814D01398FFF7DCFF0446002C8C
:105B700002D0204615B0F0BD12AA09A91398FFF76C
:105B800039FF0446002C01D02046F3E709AE00E0BF
:105B90000026002D13D02846FFF7D4FF0446002C22
:105BA00001D02046E6E711AA01A92846FFF722FF07
:105BB0000446002C01D02046DCE701AF00E00027BE
:105BC00010A803793A46017A304672DFD2E70246DE
:105BD0000A70FF2000021040001248700220704737
:105BE000FFFF000030B50346481CC004040C1046FB
:105BF0008507AD0F01D1012500E00025002D01D161
:105C0000072030BD794802601019794D28600020C6
:105C1000784D2870784D2870784803807848018046
:105C20000020EEE7F7B584B00C4674480088844243
:105C30006BDC744D0020039000F0A4F802900298F1
:105C4000012814D003A82BDF0746022F01D172B61A
:105C50000CE000BF0197019F002F06D000BF6AA291
:105C600059210198FEF73CFB00BF00BF00BF61480F
:105C7000007800F0B1F860490978884206D05D48A4
:105C80000578007800F0A8F85A49087002980128B1
:105C900014D062B66846007B2CDF0746022F0CD07A
:105CA00000BF0197019F002F06D000BF56A26121BF
:105CB0000198FEF715FB00BF00BF00BF51488542A9
:105CC00021D0E900494A06981268505004980028EB
:105CD00011D0002C0FDD494909886943444A1268F4
:105CE00088182246049901F0F9FBE8003F49096849
:105CF0004018848005E00020E9003C4A12688918B9
:105D00008880002600E0042600E00926304607B01F
:105D1000F0BDF8B505460E461746052000903548FB
:105D200000783549097888421BD0334804780078D8
:105D300000F052F8304908703048008860432C4920
:105D4000096840182860E0002849096840188088E0
:105D50003080E0002549096808583860002000902C
:105D600000BF0098F8BD0EB504E068468188009A2F
:105D7000029890476A4601A902A8FFF7CAFF0028C7
:105D8000F3D00EBD10B52D484068C105C90D0029DE
:105D900020D00A46103A104600280DDA274B1C3353
:105DA0000407240F083CA408A4001B598407E40E30
:105DB000E3401B069B0F0BE0214B032424021B191D
:105DC0008408A4001B598407E40EE3401B069B0FC4
:105DD000D8B210BD0420FCE7014609480088814282
:105DE00001DA481C00E00020C0B2704740200020CB
:105DF0004420002049200020482000204A20002084
:105E00004C200020FFFF00002E2E5C2E2E5C2E2E3C
:105E10005C2E2E5C2E2E5C536F757263655C617018
:105E2000705F636F6D6D6F6E5C6170705F736368E0
:105E30006564756C65722E630000000000ED00E083
:105E400000E100E010B5002819DAFE4A03071B0F35
:105E5000083B9B089B00D2588307DC0EFF23A3401E
:105E60009A438B071B0E8407E40EA3401A43F54B9D
:105E70000407240F083CA408A4001A5118E0F24AB1
:105E800003231B02D21883089B00D2588307DC0E21
:105E9000FF23A3409A438B071B0E8407E40EA34005
:105EA0001A43E94B032424021B198408A4001A5145
:105EB00010BD10B50446E548846003211120FFF7AA
:105EC000C1FF10BD10B501200004E1494860E04960
:105ED00040394860112000F0D4FC112000F0C3FCD0
:105EE0000120DC4908602F20FEF73EF910BD10B5F7
:105EF000112001218140D44A8032116000BF01206D
:105F00000004D3498860D249403988600120D149D2
:105F100048602F20FEF728F910BDF0B50246282072
:105F20005043CD4B1B68C118CC480068401C02D1BF
:105F3000CA48026057E0C9488B680068282460435B
:105F4000C54C246800198068834217D8C34800688C
:105F500028235843C04B1B68C01880688B68C31A3D
:105F6000BE48006828246043BB4C24680019836045
:105F7000BA4800684862B948026034E08B68B74D9F
:105F80002C6828680DE028254543B34E3668AD19C6
:105F9000AD685B1B044628254543AF4E3668AD19F6
:105FA000686A451C07D028254543AB4E3668AD19B5
:105FB000AD689D42E7D3451C0CD028254543A64E2D
:105FC0003668AD19AD68EE1A28254543A24F3F68E3
:105FD000ED19AE608B604862282565439E4E366899
:105FE000AD196A6200BFF0BD70B502469B4C2168D6
:105FF000084609E0904200D108E0014628244443C5
:10600000954D2D686419606A441CF3D100BF441C8F
:1060100000D170BD814209D1904C246828256C4381
:106020008D4D2D686419646A8C4D2C60282444437E
:10603000894D2D686419A36828244443864D2D6832
:106040006419656A28244C43834E3668A419656236
:1060500028244C43804D2D686419606A441C0CD080
:10606000282444437C4D2D686419A468E51828242D
:106070004443794E3668A419A56000BFC9E710B53E
:10608000112000F0F7FB10BD10B5142000F0F2FB5A
:1060900010BD70B5044672480068002813D0704ADD
:1060A000216AE06912689047054600BF2E46002E1F
:1060B00007D000BF6BA2FF2155313046FEF710F923
:1060C00000BF00BF02E0E169206A884770BDF8B5F3
:1060D00062480068401C39D0002700F004FC0446E8
:1060E0006C480168204600F001FC06465B480568E4
:1060F00011E028206843584909684418A068B04254
:1061000000D90AE0A068361AA068C719656A204657
:10611000FFF7BFFF00BF681CEBD100BF5E480078EF
:106120005E490978884209D15C480078401CC0B2B9
:106130005A490870022801D1002008705748007899
:10614000800057490F50FFF79FFF00BFF8BD014681
:1061500051480078514A127890421DD04E4800783C
:10616000401C4D4A107010460078022801D10020D2
:106170001070494800788000494A10580860454A24
:10618000086812688018434A1060104600680002D0
:10619000000A1060012070470020086000BFFAE785
:1061A000FEB52E48006801903E48007800903FE020
:1061B0000098C0003C4909684418257834E018204C
:1061C000684361680F18681CC5B2A078A84200D166
:1061D00000253868022802D0032822D10EE02821A9
:1061E000786848431C4909684618307E002804D066
:1061F0007868FFF7F9FE0020307613E00CE01749CD
:10620000096828225143144A12688818002101762F
:10621000124A416A116000BF10480068401CEED16C
:1062200000E000BF00BF00BF6078A842C7D100BF38
:106230000098411EC9B200910028B9D107480168F1
:10624000019833E01CED00E000E100E000150140A2
:106250004013014000100140502000205C2000202D
:10626000702000202E2E5C2E2E5C2E2E5C2E2E5C9E
:106270002E2E5C536F757263655C6170705F636F27
:106280006D6D6F6E5C6170705F74696D65722E63A9
:1062900000000000602000206C2000206D20002005
:1062A000642000205520002058200020814201D089
:1062B0000120FEBD0020FCE7F0B50346002426E0E7
:1062C000FE4E366828277E43FD4F3F68F0198668EA
:1062D0009E4203D98668F61A86601CE086689B1B7E
:1062E00086683419002686600676F44E3568F34FCA
:1062F000466A3E604669002E08D00E193602360AFC
:10630000C6604669066116684662156000BFEB48C4
:106310000068401CD4D100BFF0BDFEB50746E74879
:1063200000680290E7480078019069E00198C00099
:10633000E549096845185CE0781C07D03E462820EE
:106340007043DF4909684418676A23E029781823F5
:1063500059436A6850182978491C29702978AA7805
:10636000914201D100212970466828217143D44A05
:1063700012688C180168012902D1217E002900D001
:1063800037E08168E160C16821610169616141694B
:10639000216200BFCD49E0680968401A0002000A86
:1063A000CB49884208D2C949E068096800F09EFAE2
:1063B00021694018A06011E0C448E168006800F05D
:1063C00095FA009021690098814204D921690098CA
:1063D000081AA06001E00020A06000BF0020E0607B
:1063E000206101202076801E60623046FFF795FD17
:1063F00000BF781CA0D12878697888429CD100BF62
:106400000198411EC9B2019100288FD1AB480168A3
:106410000298814201D00120FEBD0020FCE7FEB5BC
:106420000546A6480068401C34D0A44800682821CE
:106430004843A34909684018866800F054FA02905E
:10644000A24804682146029800F050FAC01C01904E
:10645000681C01D1FFF736FD0198B04201D23046E9
:1064600000E0019804192402240A20469949086092
:1064700000BF00F038FA00900299009800F036FA58
:10648000C71C2046029900F031FA874201D9FFF774
:10649000F6FD01E0FFF72BFDFEBDFEB50020C04379
:1064A00001908A480468854807686846FFF74FFEF0
:1064B0000546FFF775FE0646002D05D001AA2146C8
:1064C0000098FFF7F9FE01260198FFF726FF002844
:1064D00000D00126002E02D03846FFF7A0FFFEBDF7
:1064E0004170704770B502460B465078411C907859
:1064F000884200D100211078884201D1002070BD6F
:10650000196050781826704355682C182046F6E715
:10651000FFB581B005460E461746E9006A4A126883
:1065200088186946FFF7DEFF0446002C02D10420DC
:1065300005B0F0BD01202060666000F0D4F9A060D5
:10654000E760049820610A986061E9005E4A126879
:1065500088180099FFF7C4FFFFF796FD0020E7E7D2
:10656000F8B504460E46E100574A12688818694695
:10657000FFF7B8FF0546002D01D10420F8BD022029
:1065800028606E60E100504A126888180099FFF791
:10659000A7FFFFF779FD0020F0E738B50446E100DA
:1065A000494A126888186946FFF79CFF0546002D86
:1065B00001D1042038BD03202860001F6860E1007D
:1065C000414A126888180099FFF78AFFFFF75CFDBF
:1065D0000020EFE710B500203F49086000213E4849
:1065E00041608160C16000203B49403908604860DB
:1065F000FFF76DFD10BD10B5FFF74FFF10BDFFB5E4
:1066000081B00E4617461C4620468107890F01D1EE
:10661000012100E00021002902D1072005B0F0BDD2
:10662000002C01D10720F9E7FFF761FC2B490A98FC
:1066300008602B4806702248046000250CE0002109
:10664000282068431E4A12681150282068431C4ABB
:106650001268801801766D1CB542F0DB282070436B
:1066600004190320174908701748046018340025DE
:106670000CE0E900144A126888180021017041708A
:1066800087704460182179430C196D1C032DF0DBD1
:106690000020C043094908600020124908701249CF
:1066A0000870142000F0EDF803211420FFF7CAFB56
:1066B000142000F0D8F8019818E000005C200020B9
:1066C000502000205520002058200020602000206D
:1066D000FFFF7F0040150140401101407020002065
:1066E000542000206C2000206D200020FFF7E1FBEB
:1066F00000F0F9F88049086000208FE770B5034684
:106700000C467E480068002801D1082070BD002A90
:1067100001D10720FAE7002B01D10720F6E700217D
:106720001CE028204843754D2D682858002814D1B6
:10673000012528204843714E3668355028204843AB
:106740006E4D2D6840194460282048436B4D2D68DC
:106750004019C26119600020D8E7491C68480078D8
:106760008142DEDB0420D1E710B500F092F8012869
:1067700002D0032804D101E0002403E0012401E059
:10678000022400BF00BF204610BDFEB504460D46E2
:1067900016465A480068002801D10820FEBD584816
:1067A0000078844201D2052D01D20720F6E7282087
:1067B0006043524909680858012801D00820EDE7D4
:1067C000282060434D49096840184068012801D1DC
:1067D000284600E000200746FFF7C6FF3B462A4652
:1067E000214600960190FFF793FED7E770B5044667
:1067F00042480068002801D1082070BD4048007858
:10680000844201D30720F8E7282060433B49096808
:106810000858012801D00820EFE7FFF7A5FF05463B
:106820002146FFF79DFEE8E710B5344800680028D0
:1068300001D1082010BDFFF797FF0446FFF7ADFE1A
:10684000F8E710B5044600F04EF82060002010BDB7
:1068500070B505460E4614463146284600F046F807
:106860002060002070BDC206D20E01219140254A51
:1068700011607047C206D20E01219140224A116078
:106880007047C206D20E012191401F4A803211602A
:10689000704710B51D484068C105C90D002920D0BA
:1068A0000A46103A104600280DDA184B1C3304072C
:1068B000240F083CA408A4001B598407E40EE340FD
:1068C0001B069B0F0BE00F4B032424021B198408AB
:1068D000A4001B598407E40EE3401B069B0FD8B2AB
:1068E00010BD0420FCE70A48406870470246501A71
:1068F0000002000A704700006020002050200020A5
:106900005420002000E100E000E200E000ED00E0A3
:106910000015014001464888B74A1288904206DBBC
:106920004888B54A5288904201DC01207047002017
:10693000FCE738B50546B1480088B14988423BD0EC
:10694000B0480078401CAF490870AF48007B097818
:1069500088420FDBA849A948008875DF0446002C4F
:1069600007D0A9488069002803D0A748816920463C
:10697000884721E00020A3490870A348007C002834
:106980000FD03B219D48008876DF0446002C07D0BD
:106990009D488069002803D09B488169204688472C
:1069A00000BF99484069002806D000200090964812
:1069B00041696846884700BF38BD70B505461C224E
:1069C00029469148FDF7E0FB0020904908702868AF
:1069D00000280BD008228848296800F07FFD8648EF
:1069E0007ADF0446002C08D0204670BD82487BDF49
:1069F0000446002C01D02046F7E70020C0437F4921
:106A0000088000207F490870814A00218148FFF7F3
:106A100075FEEAE710B57F480068FFF7E7FE10BD96
:106A200038B57D48FFF776FF002829D177480078F0
:106A300000280AD074484069002820D00020009027
:106A4000714841696846884719E06E480078002817
:106A500002D16D48456801E06B48856800222946EF
:106A60006C480068FFF791FE0446002C07D066488A
:106A70008069002803D064488169204688470AE07D
:106A800061484069002806D0012000905E484169B5
:106A90006846884700BF00205C49087038BD10B5C3
:106AA0000446A08855490880082221460E315A48DC
:106AB00000F014FD0020534908705348C089002895
:106AC00001D1FFF7ADFF10BD70B505460020C043F2
:106AD0004A49088000204B4908704E480068FFF77B
:106AE00085FE0446002C07D047488069002803D063
:106AF000454881692046884770BD70B50546AC1D84
:106B000020884149C989884220D1208B02281DD183
:106B100000BF00BFA17EE27E120211430846C107FA
:106B2000C90F002902D0FFF77BFF0FE0394800684A
:106B3000FFF75CFE0646002E07D033488069002828
:106B400003D0314881693046884700BF70BD10B519
:106B500004460822A11D304800F0C0FCFFF760FF8A
:106B600010BD10B504462088102806D0112808D082
:106B700012280ED0502810D107E02046FFF78FFFD3
:106B80000CE02046FFF7A0FF08E02046FFF7B5FF26
:106B900004E02046FFF7DBFF00E000BF00BF10BDB0
:106BA00038B5044608222146134800F097FC1248E5
:106BB0007ADF0546002D1CD11748FFF7ABFE0028F1
:106BC0000BD10120114908700B490C48008875DF72
:106BD000054601200B4908700BE00B48406900286E
:106BE00006D001200090084841696846884700BFE8
:106BF0000025284638BD0000762000208020002097
:106C0000FFFF00007E200020DC26002074200020F2
:106C1000336901008C2000208220002070B50646D8
:106C20000C46154629462046FDF770FB70BDF8B5A9
:106C300059480078002800D1F8BD5848006800285D
:106C400001D1012000E000200546554800680028D9
:106C500001D1012000E00020064600BF002D14D124
:106C600068464EDF0446052C01D101250CE0002CBE
:106C700006D000BF4BA269212046FDF731FB03E09F
:106C8000464900980968884700BF002E1AD153482A
:106C90000088009069465248006860DF0446052C71
:106CA00001D101260DE0002C06D000BF3DA28021BD
:106CB0002046FDF715FB04E049480068384909689B
:106CC000884700BF002D02D0002E00D000E0C5E7AD
:106CD00000BF00BFB0E7FFB581B00C4616461F46A7
:106CE000002C02D1072005B0F0BD20468107890F96
:106CF00001D1012100E00021002901D10720F2E7A4
:106D000037480460354806803648076036490198A0
:106D100010DF0546002D01D02846E4E701201E497A
:106D20000870162023DFDEE710B511DF0446002CC3
:106D300001D0012000E0002017490870204610BD56
:106D40000146002901D10E2070471548016000203E
:106D5000FAE70146002901D10E2070470F48016073
:106D60000020FAE770B51F480068002811D01D48C0
:106D700000688047044600BF2546002D07D000BFAD
:106D800008A2FF2133312846FDF7AAFA00BF00BF51
:106D900001E0FFF74CFF70BD90200020A4200020F0
:106DA000A02000202E2E5C2E2E5C2E2E5C2E2E5C23
:106DB0002E2E5C536F757263655C73645F636F6DD9
:106DC0006D6F6E5C736F66746465766963655F682A
:106DD000616E646C65722E63000000009C200020D0
:106DE00098200020942000201D6C010070B50446FE
:106DF0008A480068002812D02178884AA068126862
:106E00009047054600BF2E46002E06D000BF84A244
:106E100029213046FDF764FA00BF00BF02E0207868
:106E2000A168884770BDF1B582B00027029C694611
:106E30008748007800F0CFFA01900198002800D030
:106E4000FEBD8449009809680840074682480068EA
:106E5000009988430743204638400446002C18D048
:106E6000002511E00C2068437C49096846183178F8
:106E700001208840204205D0B068002802D030466A
:106E8000FFF7B4FF681CC5B2754800788542E9DB9E
:106E900000BF00BFD4E770B504460D4671480068D6
:106EA000FFF7A4FC0646002E00D070BD2046284304
:106EB00002466D4801686B480068FFF766FC0646AD
:106EC00000BFF2E7FFB583B005460C461646052E17
:106ED00002D2072007B0F0BD60480560604804702A
:106EE000614806604D4906980860002059490860CD
:106EF000594908602CE00C2161434819027801923D
:106F000041680291029989000522120707231B029A
:106F1000D318019A9200995000BF4178002901D0FE
:106F2000012100E00021027891404A4A1268114391
:106F3000484A11604178002901D1012100E0002177
:106F400002789140444A12681143434A116000BFDD
:106F50002046611ECCB20028CDD1444B3E48026889
:106F60003C4801683A4800F061F90746002F01D01B
:106F70003846AFE73E4A00213A48FFF7BFFBA9E792
:106F800010B536480068002801D1082010BD3048EF
:106F9000007800F090F9F9E710B530480068002853
:106FA00001D1082010BD2A48007800F0F3F904460A
:106FB000002C01D02046F5E72A480068FFF716FCB0
:106FC000F0E7F8B507460C4600262448006800287C
:106FD00001D10820F8BD69461D48007800F0FBF992
:106FE0000546002D01D02846F4E70120B8400646AA
:106FF0000098064208D118480068304201D00120AC
:1070000000E00020207007E012480068304201D004
:10701000012000E0002020700020DBE7BC200020E1
:107020002E2E5C2E2E5C2E2E5C2E2E5C2E2E5C5375
:107030006F757263655C6170705F636F6D6D6F6EAD
:107040005C6170705F627574746F6E2E6300000017
:10705000C0200020B4200020B0200020A820002064
:10706000AC200020C4200020B8200020976E010032
:10707000276E0100F0B502460C46002035E00123E2
:107080008340194623460B422ED0D5680D4205D1C8
:1070900001235B04D5680D43D56004E003231B0482
:1070A000D5688D43D56005252D0707263602AD1915
:1070B0008600AD5903263604B54305263607072753
:1070C0003F02F6198700F55105252D0707263602E0
:1070D000AD198600AD591D430526360707273F0227
:1070E000F6198700F55100BF401C2028C7D3F0BD1A
:1070F000FEB5E14806690020E049C863002527E0A5
:1071000014206843DE49096844180120A840DD497D
:10711000096808421AD0E068C043704021680840FE
:10712000074639462046FFF7A5FFA068B043384020
:107130000090606830403840019000990198084301
:1071400003D0226900990198904700BF681CC5B21E
:10715000CD4800788542D3DBFEBD10B50146002046
:1071600028E014224A43C64B1B689A5801238340E7
:107170001A421ED00522120707231B02D2188300D1
:10718000D25803231B049A4305231B070724240218
:107190001B1984001A510522120707231B02D2185B
:1071A0008300D25805231B07072424021B198400DF
:1071B0001A51401C2028D4D310BD70B505460C468A
:1071C000002C01D1072070BD20468107890F01D115
:1071D000012100E00021002901D10720F3E7A848A0
:1071E0000460AA4805700020A7490870A5490860F6
:1071F000A6480078142250430146A148006800F0D8
:10720000CCF90020C043A2498860062001218140BA
:10721000A04A116000BF012100F0F7F8062001210B
:1072200081409D4A116000BF0020CCE7F8B50446BC
:107230000D4616461F4692480068002801D10820D6
:10724000F8BD002F01D10720FAE78F4800788F4959
:107250000978884201DB0420F2E7284630438A4956
:10726000097814225143864A1268505086480078A3
:1072700014214843824909684018456082480078D3
:10728000142148437E490968401886607E4800788A
:10729000142148437A490968401807617A48007800
:1072A000207079480078401C774908702078FFF7F3
:1072B00054FF0020C4E7F0B502467148006800287A
:1072C00001D10820F0BD70480078824201DB072020
:1072D000F8E70020694BD86367480469694800688B
:1072E000002802D158066A4B586001209040654B37
:1072F0001B681843634B1860002314205043604DF3
:107300002D684019C360002140E001238B401846DE
:10731000142353435A4D2D68EB58034235D025466C
:10732000054202D003231B040EE001235B04142555
:107330005543534E3668AD19ED6805431426564340
:107340004F4F3F68F619F56005252D0707263602D1
:10735000AD198E00AD5903263604B5430526360710
:1073600007273F02F6198F00F55105252D0707263F
:107370003602AD198E00AD591D4305263607072785
:107380003F02F6198F00F55100BF491C2029BCD3DC
:10739000002097E710B5044639480068002801D15D
:1073A000082010BD38480078844201DB0720F8E748
:1073B0002046FFF7D2FE0120A040324909688143F0
:1073C000304801600068002803D10120C00730491F
:1073D00088600020E5E710B50246294800680028CB
:1073E00001D1082010BD28480078824201DB072027
:1073F000F8E714205043224C246803191E48006902
:107400001C68204008600020ECE710B5002819DA5D
:10741000224A03071B0F083B9B089B00D258830797
:10742000DC0EFF23A3409A438B071B0E8407E40E58
:10743000A3401A43194B0407240F083CA408A400D6
:107440001A5118E0144A03231B02D21883089B0028
:10745000D2588307DC0EFF23A3409A438B071B0EF1
:107460008407E40EA3401A430B4B032424021B1988
:107470008408A4001A5110BD00050050406100406E
:10748000C8200020CC200020D1200020D0200020C7
:107490000063004080E200E000E100E01CED00E05D
:1074A00004460D4616467F223146094800F078F81A
:1074B000002107486030C17706490D800648046006
:1074C000084600880448006872B600BFFEE7000066
:1074D000F8260020D4200020D8200020F8B5042A67
:1074E0002CD3830712D00B78491C0370401C521E0A
:1074F00083070BD00B78491C0370401C521E830776
:1075000004D00B78491C0370401C521E8B079B0F44
:1075100005D0C91ADF002023DE1B08C90AE0FCF7EA
:1075200033FEF8BD1D4608C9FD401C46B4402C433F
:1075300010C0121F042AF5D2F308C91A521EF0D443
:107540000B78491C0370401C521EEAD40B78491C6E
:107550000370401C521EE4D409780170F8BD01E0AC
:1075600004C0091F0429FBD28B0701D50280801CAF
:10757000C90700D00270704700290BD0C30702D0A2
:107580000270401C491E022904D3830702D50280E1
:10759000801C891EE3E70022EEE70022DFE70000FF
:1075A000F8B507460B4639461943890713D1164CDF
:1075B000E601042A0FD302CB0D1B8D43354202D1C5
:1075C00002C0121FF5E7CBB20370521E401C002B05
:1075D00013D0090AF7E7002A14D01978521E5B1C51
:1075E0000170401C002908D0002A0BD01978521EC7
:1075F0005B1C0170401C0029EDD1002A02D011460D
:10760000FFF7C9FF3846F8BD010101010022030957
:107610008B422CD3030A8B4211D300239C464EE0AD
:1076200003460B433CD4002243088B4231D3030969
:107630008B421CD3030A8B4201D394463FE0C3091B
:107640008B4201D3CB01C01A524183098B4201D333
:107650008B01C01A524143098B4201D34B01C01A1E
:10766000524103098B4201D30B01C01A5241C30896
:107670008B4201D3CB00C01A524183088B4201D305
:107680008B00C01A524143088B4201D34B00C01AF1
:107690005241411A00D201465241104670475DE006
:1076A000CA0F00D04942031000D340425340002289
:1076B0009C4603098B422DD3030A8B4212D3FC2232
:1076C000890112BA030A8B420CD3890192118B42B1
:1076D00008D3890192118B4204D389013AD09211C7
:1076E00000E08909C3098B4201D3CB01C01A524182
:1076F00083098B4201D38B01C01A524143098B424B
:1077000001D34B01C01A524103098B4201D30B0133
:10771000C01A5241C3088B4201D3CB00C01A524158
:1077200083088B4201D38B00C01A5241D9D243083F
:107730008B4201D34B00C01A5241411A00D201467C
:10774000634652415B10104601D34042002B00D5E6
:107750004942704763465B1000D3404201B50020A8
:10776000C046C04602BD704770477047754600F07E
:1077700023F8AE46050069465346C008C00085465A
:1077800018B020B5FCF72CFD60BC00274908B646B0
:107790000026C0C5C0C5C0C5C0C5C0C5C0C5C0C520
:1077A000C0C5403D49008D4670470446C046C046AE
:1077B0002046FCF7D2FC00000048704778270020E4
:1077C00001491820ABBEFEE726000200704700000A
:1077D00044440100740DA1BF2773403BB842502EB2
:1077E000000016290478010000200020DC000000C1
:1077F00004410100E0780100DC200020FC160000BC
:10780000204101000024F400FFFF00000000000000
:107810000000000000000000180000000000000050
:107820000000000004000000000000000000000054
:107830000000000000000000000000000000000048
:107840000000000000000000000000000000000038
:107850000000000000000000000000000000000028
:107860000000000000000000000000000000000018
:107870000000000000000000000000000000000008
:1078800000000000000000000000000000000000F8
:1078900000000000000000000000000000000000E8
:1078A00000000000000000000000000000000000D8
:1078B00000000000000000000000000000000000C8
:1078C00000000000000000000000000000000000B8
:1078D00000000000000000000000000000000000A8
:04000005000140C1F5
:00000001FF
